:100000000C9461000C947E000C947E000C947E0095
:100010000C947E000C947E000C947E000C947E0068
:100020000C947E000C947E000C947E000C947E0058
:100030000C947E000C947E000C947E000C947E0048
:100040000C94C6010C947E000C947E000C947E00EF
:100050000C947E000C947E000C947E000C947E0028
:100060000C947E000C947E00000000002400270009
:100070002A0000000000250028002B0000000000DE
:1000800023002600290004040404040404040202DA
:100090000202020203030303030301020408102007
:1000A0004080010204081020010204081020000012
:1000B0000007000201000003040600000000000029
:1000C000000011241FBECFEFD8E0DEBFCDBF11E08E
:1000D000A0E0B1E0E4E7F6E002C005900D92A431A3
:1000E000B107D9F711E0A4E1B1E001C01D92AD3133
:1000F000B107E1F70E94BF010C9438030C94000093
:100100008091100160EF70E00E94720280911201F4
:1001100060E070E00E94720268EC70E080E090E0C5
:100120000E940E028091100160E070E00E94720255
:100130008091120160E070E00E94720264E670E05B
:1001400080E090E00E940E028091100160E070E07B
:100150000E9472028091120160EF70E00E947202B0
:10016000089580910C0160EF70E00E94720280910E
:100170000E0160E070E00E94720268EC70E080E0C6
:1001800090E00E940E0280910C0160E070E00E94FD
:10019000720280910E0160E070E00E94720264E6DB
:1001A00070E080E090E00E940E0280910C0160E01F
:1001B00070E00E94720280910E0160EF70E00E9478
:1001C000720208958091080160EF70E00E9472024F
:1001D00080910A0160E070E00E94720268EC70E0B9
:1001E00080E090E00E940E028091080160E070E0E3
:1001F0000E94720280910A0160EF70E00E94720218
:1002000008958091040166E970E00E947202809175
:10021000060160E070E00E94720268EC70E080E02D
:1002200090E00E940E028091040160E070E00E9464
:1002300072028091060160E070E00E94720264E642
:1002400070E080E090E00E940E028091040160E086
:1002500070E00E9472028091060166E970E00E94DF
:10026000720208958091000160EF70E00E947202B6
:100270008091020160E070E00E94720268EC70E020
:1002800080E090E00E940E028091000160E070E04A
:100290000E9472028091020160E070E00E9472028E
:1002A00064E670E080E090E00E940E028091000120
:1002B00060E070E00E9472028091020160EF70E0E5
:1002C0000E94720208950E94320164E670E080E0AC
:1002D00090E00E940E020E94010164E670E080E05E
:1002E00090E00E940E020E94E20064E670E080E06E
:1002F00090E00E940E020E94B10064E670E080E08F
:1003000090E00E940E020E94800064E670E080E0AF
:1003100090E00E940E0208958091000161E00E9429
:10032000CB028091020161E00E94CB028091040126
:1003300061E00E94CB028091060161E00E94CB0245
:100340008091080161E00E94CB0280910A0161E086
:100350000E94CB0280910C0161E00E94CB0280914F
:100360000E0161E00E94CB028091100161E00E94C9
:10037000CB028091120161E00E94CB0208950E949D
:1003800038020E948C010E946301FDCF1F920F92E0
:100390000FB60F9211242F933F938F939F93AF9398
:1003A000BF938091180190911901A0911A01B09109
:1003B0001B0130911C010196A11DB11D232F2D5F42
:1003C0002D3720F02D570196A11DB11D20931C0142
:1003D0008093180190931901A0931A01B0931B0107
:1003E0008091140190911501A0911601B09117010F
:1003F0000196A11DB11D8093140190931501A09346
:100400001601B0931701BF91AF919F918F913F91CA
:100410002F910F900FBE0F901F901895EF92FF92A3
:100420000F931F937B018C018FB7F89440911801B3
:100430005091190160911A0170911B018FBF2FB764
:10044000F8948091180190911901A0911A01B0912E
:100450001B012FBF841B950BA60BB70BE816F906E3
:100460000A071B0760F71F910F91FF90EF90089507
:10047000789484B5826084BD84B5816084BD85B57F
:10048000826085BD85B5816085BDEEE6F0E0808146
:1004900081608083E1E8F0E08081826080838081F8
:1004A00081608083E0E8F0E0808181608083E1EB1F
:1004B000F0E0808184608083E0EBF0E08081816007
:1004C0008083EAE7F0E080818460808380818260BD
:1004D00080838081816080838081806880831092A6
:1004E000C10008951F93CF93DF93182FEB0161E0B4
:1004F0000E94CB02E12FF0E0E255FF4F8491833060
:1005000051F480918000806880938000D0938900AE
:10051000C09388003CC0843051F480918000806298
:1005200080938000D0938B00C0938A0030C08130CC
:1005300039F4209729F184B5806884BDC7BD27C0F0
:10054000823039F42097E1F084B5806284BDC8BD63
:100550001EC0863041F48091B00080688093B00066
:10056000C093B30014C0873041F48091B000806222
:100570008093B000C093B4000AC0C038D1051CF409
:10058000812F60E002C0812F61E00E94EB02DF91C9
:10059000CF911F910895282F30E0C90186569F4FB3
:1005A000FC0194912A573F4FF9018491882391F0DF
:1005B000E82FF0E0EE0FFF1FE859FF4FA591B4912F
:1005C000662329F48C91909589238C9308958C91BE
:1005D000892B8C930895482F50E0CA0182559F4F74
:1005E000FC012491CA0186569F4FFC0194914A5701
:1005F0005F4FFA0134913323D1F1222331F12330BB
:1006000021F4809180008F7705C0243031F48091EF
:1006100080008F7D8093800018C0213019F484B54C
:100620008F7704C0223021F484B58F7D84BD0DC046
:10063000263021F48091B0008F7705C0273029F44F
:100640008091B0008F7D8093B000E32FF0E0EE0F3B
:10065000FF1FEE58FF4FA591B491662329F48C91AA
:10066000909589238C9308958C91892B8C93089570
:04067000F894FFCF2C
:10067400020003000400050006000700080009004A
:04068400020002006E
:00000001FF
